:0600000000F08DEF1FF07F
:103F1800FFFF0001CEEF1FF0FFFFB4EC1FF0C580DC
:103F28001200FFFFFFFFB4EC1FF0C5841200FFFF73
:103F3800FFFF026EB4EC1FF002C0C9FFB4EC1FF023
:103F48001200FFFFFFFF280EC66E000EC56E000EA2
:103F5800C76E090EC86E948694881200FFFFFFFF93
:103F6800FFFFFFFFC7B4BBEF1FF0BEEF1FF0FFFF5F
:103F7800B5EF1FF0FFFFC5CF01F01F0E0116D8A443
:103F8800C8EF1FF0CBEF1FF0FFFFB5EF1FF0FFFFEB
:103F98001200FFFFFFFF9368000E956E000E836E00
:103FA800010E056EA6EC1FF0FFFF90EC1FF0400E0F
:103FB8009CEC1FF005509CEC1FF0052A96EC1FF0B6
:103FC800020E046EE80E036E520EFFFFE82EFDD7B8
:103FD800032EFBD7042EF9D783A6F5EF1FF0F9EFD0
:103FE8001FF0FFFF8386FBEF1FF0FFFF8396FFFFA5
:083FF800D8EF1FF001EF00F00B
:020000040020DA
:08000000FFFFFFFFFFFFFFFF00
:020000040030CA
:04000000FF220D0EC0
:0800060080FF0FC00FE00F4066
:00000001FF
