:0600000000F016EF1DF0F8
:100600000025302E326600494E46004E414E0069AC
:0B0610006E66006E616E006C660000FC
:10061C00FFFF000E0001756F000E746F36C086F080
:10062C0037C087F038C088F039C089F089BF24EF13
:10063C0003F021EF03F0FFFF3BEF03F0FFFF000E91
:10064C00756F010E746F86C001F087C002F088C010
:10065C0003F089C004F0A2EC1DF001C086F002C0CA
:10066C0087F003C088F004C089F0FFFF000E000182
:10067C008D6F000E8C6FDCC078F0DDC079F074519A
:10068C007511D8A44CEF03F04FEF03F0FFFF58EFB8
:10069C0003F0FFFF5EA455EF03F058EF03F0FFFFEC
:1006AC0077EF03F0FFFF74517511D8A460EF03F0DE
:1006BC0063EF03F0FFFF6AEF03F0FFFF000E616FC3
:1006CC002B0E606F6FEF03F0FFFF000E616F2D0EAE
:1006DC00606FFFFF60C000F18C4B8D2B7807D8A0AA
:1006EC007907FFFF86C001F087C002F088C003F0D5
:1006FC0089C004F0C7EC18F001040210D8A489EFEB
:10070C0003F08CEF03F0FFFFDDEF03F0FFFFBF0EF4
:10071C003B6EFF0E3C6E3A503D6E3E6A3B503D26A2
:10072C003C503E223E5007E11A0E3D5CD8B0A1EF82
:10073C0003F0A4EF03F0FFFFB4EF03F0FFFF000E94
:10074C0000018C25016E010E8D21026E070E036EC9
:10075C00060E046E36EC1CF0C2EF03F0FFFF000E29
:10076C0000018C25016E010E8D21026E0F0E036EA1
:10077C00060E046E36EC1CF0FFFF0001FD0E782710
:10078C00FF0E7923FFFF34C011F035C012F0000EBC
:10079C00136E010E146E78C015F079C016F04DEC86
:1007AC001AF011C034F012C035F0A3EF09F0FFFFBE
:1007BC0086C001F087C002F088C003F089C004F045
:1007CC00C7EC18F001500210D8A4EFEF03F0F2EFD1
:1007DC0003F0FFFF2AEF04F0FFFFBF0E3B6EFF0E8E
:1007EC003C6E3A503D6E3E6A3B503D263C503E229C
:1007FC003E5007E11A0E3D5CD8B007EF04F00AEF4B
:10080C0004F0FFFF1AEF04F0FFFF000E00018C252F
:10081C00016E010E8D21026E0B0E036E060E046E20
:10082C0036EC1CF0C2EF03F0FFFF000E00018C252C
:10083C00016E010E8D21026E130E036E060E046EF8
:10084C0036EC1CF0C2EF03F0FFFF000E00018E6FC0
:10085C00000E8F6F800E906F3F0E916F000E8B6F9E
:10086C00000E8A6F86C001F087C002F088C003F0CA
:10087C0089C004F0000E056E000E066E000E076EA9
:10088C00000E086E9DEC1BF0D8B04FEF04F052EF49
:10089C0004F0FFFFDDEF04F0FFFF73EF04F0FFFF48
:1008AC008EC00FF08FC010F090C011F091C012F0FC
:1008BC00000E136E000E146E200E156E410E166E89
:1008CC002CEC0FF00FC08EF010C08FF011C090F018
:1008DC0012C091F000018A4B8B2BFFFF86C028F0D1
:1008EC0087C029F088C02AF089C02BF0000E136E47
:1008FC00000E146E200E156E410E166E8EC00FF08B
:10090C008FC010F090C011F091C012F02CEC0FF0D1
:10091C000FC02CF010C02DF011C02EF012C02FF013
:10092C0033EC18F0D8B09DEF04F0A0EF04F0FFFF0B
:10093C0055EF04F0FFFFC2EF04F0FFFF8EC001F093
:10094C008FC002F090C003F091C004F0000E056E51
:10095C00000E066E200E076E410E086E7EEC11F036
:10096C0001C08EF002C08FF003C090F004C091F073
:10097C0000018A07D8A08B07FFFF86C028F087C02C
:10098C0029F088C02AF089C02BF08EC02CF08FC0C3
:10099C002DF090C02EF091C02FF033EC18F0D8A0B1
:1009AC00DAEF04F0DDEF04F0FFFFA3EF04F0FFFF3C
:1009BC003AC007F0086AC5EC1CF0075000017B6FC9
:1009CC007BC07AF0670E7B19D8A4EFEF04F0F2EF3E
:1009DC0004F0FFFF20EF05F0FFFF5C505D10D8A482
:1009EC00FAEF04F0FDEF04F0FFFF02EF05F0FFFF5C
:1009FC00000E5D6E010E5C6EFFFF5DBE11EF05F02B
:100A0C005D5006E15C04D8B00EEF05F011EF05F077
:100A1C00FFFF19EF05F0FFFFFFFF000E776F060ECB
:100A2C00766F2CEF05F0FFFF5CC076F05DC077F0C1
:100A3C002CEF05F0FFFF5DBE26EF05F029EF05F06A
:100A4C00FFFF12EF05F0FFFF19EF05F0FFFF670E38
:100A5C007B19D8A434EF05F037EF05F0FFFF6CEFEE
:100A6C0005F0FFFF8BAF47EF05F0FC0E8A5DFF0E24
:100A7C008B59D8A044EF05F047EF05F0FFFF69EF65
:100A8C0005F0FFFFFF0E3B6EFF0E3C6E76C03DF097
:100A9C0077C03EF03B503D263C503E228A513D5C97
:100AAC003E50800A3F6E8B51800A3F58D8A061EFB0
:100ABC0005F064EF05F0FFFF69EF05F0FFFF660E30
:100ACC007A6F6CEF05F0FFFF650E7A6FFFFF76C053
:100ADC006CF077C06DF0670E7B19D8A478EF05F039
:100AEC007BEF05F0FFFF8FEF05F0FFFF660E7A1925
:100AFC00D8A483EF05F086EF05F0FFFF92EF05F029
:100B0C00FFFF8BBF8FEF05F08CEF05F0FFFF92EF2F
:100B1C0005F0FFFF6C4B6D2BFFFF660E7A19D8A406
:100B2C009AEF05F09DEF05F0FFFFC3EF05F0FFFF17
:100B3C008BBFA6EF05F0A3EF05F0FFFFB3EF05F0B9
:100B4C00FFFF000E8E6F000E8F6F800E906F3F0EAA
:100B5C00916F000E8B6F000E8A6FFFFF670E7B1973
:100B6C00D8B4BBEF05F0BEEF05F0FFFFC3EF05F007
:100B7C00FFFF8A516C278B516D23FFFF000E856F91
:100B8C00000E846F86C07CF087C07DF088C07EF03C
:100B9C0089C07FF08EC06EF08FC06FF090C070F087
:100BAC0091C071F056EF06F0FFFF7CC001F07DC0E4
:100BBC0002F07EC003F07FC004F08EC005F08FC041
:100BCC0006F090C007F091C008F07EEC11F001C067
:100BDC001AF002C01BF003C01CF004C01DF097EC0F
:100BEC0013F01AC080F01BC081F01CC082F01DC035
:100BFC0083F080C001F081C002F082C003F083C09A
:100C0C0004F098EC17F001C072F002C073F07CC0D5
:100C1C0028F07DC029F07EC02AF07FC02BF08EC05A
:100C2C0013F08FC014F090C015F091C016F080C076
:100C3C000FF081C010F082C011F083C012F02CECC8
:100C4C000FF00FC02CF010C02DF011C02EF012C000
:100C5C002FF03BEC1DF028C07CF029C07DF02AC0A1
:100C6C007EF02BC07FF08EC001F08FC002F090C0E0
:100C7C0003F091C004F0000E056E000E066E200EFF
:100C8C00076E410E086E7EEC11F001C08EF002C0B2
:100C9C008FF003C090F004C091F00001844B852BC1
:100CAC00FFFF6C51845D8551800A3B6E6D51800A4B
:100CBC003B58D8A064EF06F067EF06F0FFFFDAEFC1
:100CCC0005F0FFFF8EC00FF08FC010F090C011F038
:100CDC0091C012F0000E136E000E146EA00E156E65
:100CEC00400E166E2CEC0FF00FC080F010C081F08F
:100CFC0011C082F012C083F07CC028F07DC029F0B6
:100D0C007EC02AF07FC02BF080C02CF081C02DF06B
:100D1C0082C02EF083C02FF033EC18F0D8B099EFCE
:100D2C0006F09CEF06F0FFFFA8EF06F0FFFF000EA9
:100D3C000001806F000E816F000E826F000E836FBA
:100D4C00D6EF06F0FFFF7CC001F07DC002F07EC044
:100D5C0003F07FC004F080C005F081C006F082C0B3
:100D6C0007F083C008F09DEC1BF0D8A0C0EF06F094
:100D7C00C3EF06F0FFFFD6EF06F0FFFF000172B1E4
:100D8C00CAEF06F0CDEF06F0FFFFD6EF06F0FFFF3F
:100D9C00000E806F000E816F000E826F000E836F4D
:100DAC00FFFF86C001F087C002F088C003F089C045
:100DBC0004F080C005F081C006F082C007F083C04B
:100DCC0008F0A6EC09F001C07CF002C07DF003C075
:100DDC007EF004C07FF07CC028F07DC029F07EC07E
:100DEC002AF07FC02BF0000E136E000E146E200E36
:100DFC00156E410E166E6EC00FF06FC010F070C005
:100E0C0011F071C012F02CEC0FF00FC02CF010C0D0
:100E1C002DF011C02EF012C02FF033EC18F0D8A02A
:100E2C001AEF07F01DEF07F0FFFF49EF07F0FFFF88
:100E3C0000018A4B8B2B6EC00FF06FC010F070C08E
:100E4C0011F071C012F0000E136E000E146E200E15
:100E5C00156E410E166E2CEC0FF00FC06EF010C01C
:100E6C006FF011C070F012C071F0660E00017A19AB
:100E7C00D8A443EF07F046EF07F0FFFF49EF07F068
:100E8C00FFFF6C4B6D2BFFFF6EC08EF06FC08FF0B1
:100E9C0070C090F071C091F0650E00017A19D8B451
:100EAC005AEF07F05DEF07F0FFFF64EF07F0FFFF6D
:100EBC008AC06AF08BC06BF069EF07F0FFFF000E81
:100ECC006B6F000E6A6FFFFF000E696F000E686F8C
:100EDC00000E676F000E666F000E856F000E846F3C
:100EEC0079EF08F0FFFF7CC001F07DC002F07EC0FE
:100EFC0003F07FC004F08EC005F08FC006F090C0E8
:100F0C0007F091C008F07EEC11F001C01AF002C09D
:100F1C001BF003C01CF004C01DF097EC13F01AC0BA
:100F2C0080F01BC081F01CC082F01DC083F080C01B
:100F3C0001F081C002F082C003F083C004F098EC91
:100F4C0017F001C072F002C073F05EB8B0EF07F09A
:100F5C00B3EF07F0FFFFD8EF07F0FFFF000172516E
:100F6C007311D8A4BCEF07F0BFEF07F0FFFFD8EF69
:100F7C0007F0FFFF670E7B19D8A4C7EF07F0CAEF85
:100F8C0007F0FFFFD8EF07F0FFFF6BBFD3EF07F0C1
:100F9C00D0EF07F0FFFFD8EF07F0FFFF664B672B92
:100FAC002CEF08F0FFFF000168516911D8A4E1EFA4
:100FBC0007F0E4EF07F0FFFF12EF08F0FFFF6BBF45
:100FCC00EDEF07F0EAEF07F0FFFF12EF08F0FFFF7D
:100FDC00000E8C25D96E010E8D21DA6E2E0EDF6E71
:100FEC008C4B8D2B7807D8A07907000E696F010EFA
:100FFC00686F12EF08F0FFFF000E8C25D96E010E02
:10100C008D21DA6E300EDF6E8C4B8D2B7807D8A0CD
:10101C0079076607D8A06707FFFF66516711D8A448
:10102C001AEF08F01DEF08F0FFFF01EF08F0FFFFCB
:10103C00000E8C25D96E010E8D21DA6E7251300F97
:10104C00DF6E8C4B8D2B7807D8A07907FFFF7CC007
:10105C0028F07DC029F07EC02AF07FC02BF08EC016
:10106C0013F08FC014F090C015F091C016F080C032
:10107C000FF081C010F082C011F083C012F02CEC84
:10108C000FF00FC02CF010C02DF011C02EF012C0BC
:10109C002FF03BEC1DF028C07CF029C07DF02AC05D
:1010AC007EF02BC07FF08EC001F08FC002F090C09C
:1010BC0003F091C004F0000E056E000E066E200EBB
:1010CC00076E410E086E7EEC11F001C08EF002C06E
:1010DC008FF003C090F004C091F000016A07D8A013
:1010EC006B07844B852BFFFF6C51845D8551800A07
:1010FC003B6E6D51800A3B58D8B087EF08F08AEFF1
:10110C0008F0FFFF9AEF08F0FFFF8DBF97EF08F094
:10111C008D510AE14B0E8C5DD8A097EF08F09AEF39
:10112C0008F0FFFF78EF07F0FFFF68516911D8A4B2
:10113C00A2EF08F0A5EF08F0FFFFB9EF08F0FFFFF2
:10114C005EA8ABEF08F0AEEF08F0FFFFB9EF08F0C8
:10115C00FFFF000E8C25D96E010E8D21DA6E2E0E3E
:10116C00DF6E8C4B8D2BFFFF000E8C25D96E010E84
:10117C008D21DA6E000EDF6E650E7A19D8A4C9EFD8
:10118C0008F0CCEF08F0FFFFC8EF03F0FFFF000EF4
:10119C00856F4F0E846F000E8425D96E010E85214C
:1011AC00DA6E000EDF6E000E756F000E746F8BBF63
:1011BC00E5EF08F0E2EF08F0FFFFEEEF08F0FFFFBD
:1011CC00000E756F010E746F8A6D8B1FD8B08B2B50
:1011DC00FFFF000E776F020E766F21EF09F0FFFF15
:1011EC008407D8A08507000E8425D96E010E8521B1
:1011FC00DA6E8AC001F08BC002F0000E046E0A0E8B
:10120C00036E2FEC1BF00150300FDF6E8AC001F023
:10121C008BC002F0000E046E0A0E036ED5EC19F0B2
:10122C0001C08AF002C08BF000017607D8A07707C6
:10123C007807D8A07907FFFF8A518B11D8A429EF22
:10124C0009F02CEF09F0FFFFF5EF08F0FFFF77BF77
:10125C003BEF09F0775106E17605D8B038EF09F08D
:10126C003BEF09F0FFFFF5EF08F0FFFF8407D8A074
:10127C00850774517511D8A446EF09F049EF09F0B0
:10128C00FFFF50EF09F0FFFF000E636F2B0E626F34
:10129C0055EF09F0FFFF000E636F2D0E626FFFFF1D
:1012AC00000E8425D96E010E8521DA6E62C0DFFF37
:1012BC007807D8A079078407D8A08507BF0E3B6EA6
:1012CC00FF0E3C6E3A503D6E3E6A3B503D263C5004
:1012DC003E223E500AE11A0E3D5CD8A078EF09F090
:1012EC007BEF09F0FFFF82EF09F0FFFF000E656F47
:1012FC00650E646F87EF09F0FFFF000E656F450EFA
:10130C00646FFFFF000E8425D96E010E8521DA6E05
:10131C0064C0DFFF7807D8A07907000E8C25016E1A
:10132C00010E8D21026E000E8425036E010E8521A7
:10133C00046E36EC1CF0C8EF03F0FFFF1200FFFF49
:10134C00FFFF0450800B0D6E045004240F6E03AE8F
:10135C00B2EF09F0B5EF09F0FFFFB7EF09F0FFFFAF
:10136C000F80FFFF0F50D8B4BEEF09F0C1EF09F0AA
:10137C00FFFFDAEF09F0FFFF0F28D8A4C8EF09F040
:10138C00CBEF09F0FFFFD4EF09F0FFFF000E016E69
:10139C00000E026E000E036E000E046EFFFF038E35
:1013AC00000E046EE3EF09F0FFFF000E016E000E5D
:1013BC00026E000E036E000E046EFFFF0850800BD1
:1013CC000E6E0D500E18D8B4EEEF09F0F1EF09F0D7
:1013DC00FFFFF3EF09F0FFFF0D8CFFFF085008240F
:1013EC000E6E07AEFCEF09F0FFEF09F0FFFF01EF07
:1013FC000AF0FFFF0E80FFFF0E50D8B408EF0AF082
:10140C000BEF0AF0FFFF24EF0AF0FFFF0E28D8A421
:10141C0012EF0AF015EF0AF0FFFF1EEF0AF0FFFFC4
:10142C00000E056E000E066E000E076E000E086EA6
:10143C00FFFF078E000E086E2DEF0AF0FFFF000E67
:10144C00056E000E066E000E076E000E086EFFFF96
:10145C000F500E5CD8B035EF0AF038EF0AF0FFFFF2
:10146C0063EF0AF0FFFF0DAC3EEF0AF041EF0AF01C
:10147C00FFFF44EF0AF0FFFF800E0D1AFFFF0FC0B5
:10148C0010F00EC00FF010C00EF001C010F005C02F
:10149C0001F010C005F002C010F006C002F010C040
:1014AC0006F003C010F007C003F010C007F004C032
:1014BC0010F008C004F010C008F0FFFF000E106E12
:1014CC000F500EC009F00A6A095E000E0A5A0ABED5
:1014DC0079EF0AF00A500AE11A0E095CD8A079EFEC
:1014EC000AF07CEF0AF0FFFFBFEF0AF0FFFF01509C
:1014FC00021003100410D8A486EF0AF08AEF0AF049
:10150C00FFFF010E8CEF0AF0FFFF000EFFFF106EC5
:10151C00000E016E000E026E000E036E000E046EC5
:10152C000EC00FF0CAEF0AF0FFFF10A0A0EF0AF0F8
:10153C00A3EF0AF0FFFFAAEF0AF0FFFFD8901030DC
:10154C000109106EADEF0AF0FFFFD8901032FFFFCB
:10155C0001A0B3EF0AF0B6EF0AF0FFFFB8EF0AF004
:10156C00FFFF108EFFFF04340432033202320132CB
:10157C000F2AFFFF0E500F5CD8A0C7EF0AF0CAEF7E
:10158C000AF0FFFF9AEF0AF0FFFF0DBCD0EF0AF054
:10159C00D3EF0AF0FFFF20EF0BF0FFFF0F50D8A4A2
:1015AC00DAEF0AF0DDEF0AF0FFFFE8EF0AF0FFFFD9
:1015BC00000E016E000E026E000E036E000E046E25
:1015CC0077EF0CF0FFFF0550012606500222075062
:1015DC0003220850042204A0F6EF0AF0F9EF0AF0F7
:1015EC00FFFFC4EF0BF0FFFF10A0FFEF0AF002EFBC
:1015FC000BF0FFFF09EF0BF0FFFFD8901030010943
:10160C00106E0CEF0BF0FFFFD8901032FFFF01A013
:10161C0012EF0BF015EF0BF0FFFF17EF0BF0FFFFC6
:10162C00108EFFFF043404320332023201320F2ACF
:10163C00C4EF0BF0FFFF0550015C06500258075039
:10164C0003580450800A096E0850800A0958D8B013
:10165C0032EF0BF035EF0BF0FFFF63EF0BF0FFFFFA
:10166C000150055C096E025006580A6E035007586B
:10167C000B6E045008580C6EFF0E0924016EFF0E01
:10168C000A20026EFF0E0B20036EFF0E0C20046E60
:10169C00800E0D1A106C1050D8A457EF0BF05AEFA7
:1016AC000BF0FFFF6CEF0BF0FFFF010E0126000E9D
:1016BC000222032204226CEF0BF0FFFF0550015EA7
:1016CC000650025A0750035A0850045AFFFF0150A3
:1016DC00021003100410D8A476EF0BF079EF0BF086
:1016EC00FFFFBBEF0BF0FFFF1050D8A480EF0BF007
:1016FC0083EF0BF0FFFFBBEF0BF0FFFF000E016E53
:10170C00000E026E000E036E000E046E77EF0CF0EE
:10171C00FFFFD890013602360336043610AE99EF2F
:10172C000BF09CEF0BF0FFFF9EEF0BF0FFFF018027
:10173C00FFFF10A0A4EF0BF0A7EF0BF0FFFFACEF37
:10174C000BF0FFFFD8801036AFEF0BF0FFFFD890F7
:10175C001036FFFF0F50D8B4B6EF0BF0B9EF0BF00B
:10176C00FFFFBBEF0BF0FFFF0F06FFFF03AEC1EF58
:10177C000BF0C4EF0BF0FFFF8EEF0BF0FFFF000E32
:10178C000E6E10AECCEF0BF0CFEF0BF0FFFFEEEFC9
:10179C000BF0FFFF10C009F07F0E0916D8B4D9EF7B
:1017AC000BF0DCEF0BF0FFFFE2EF0BF0FFFFFFFFA6
:1017BC00010E0E6EEEEF0BF0FFFF01A0E8EF0BF049
:1017CC00EBEF0BF0FFFFEEEF0BF0FFFFDDEF0BF09D
:1017DC00FFFF0E50D8B4F5EF0BF0F8EF0BF0FFFF56
:1017EC0028EF0CF0FFFF010E0126000E022203224F
:1017FC00042204A004EF0CF007EF0CF0FFFF28EF1D
:10180C000CF0FFFF01C009F002C00AF003C00BF09E
:10181C0004C00CF00C340C320B320A32093209C001
:10182C0001F00AC002F00BC003F00CC004F00F284A
:10183C00D8B423EF0CF026EF0CF0FFFF28EF0CF0E0
:10184C00FFFF0F2AFFFF0F28D8B42FEF0CF032EF59
:10185C000CF0FFFF3CEF0CF0FFFF0F50D8A439EF5A
:10186C000CF03CEF0CF0FFFF51EF0CF0FFFF000E03
:10187C00016E000E026E000E036E000E046E0F5011
:10188C00D8A44BEF0CF04EEF0CF0FFFF51EF0CF027
:10189C00FFFF000E0D6EFFFF0FA057EF0CF05AEF7D
:1018AC000CF0FFFF5EEF0CF0FFFF038E60EF0CF00F
:1018BC00FFFF039EFFFFD8900F30046E0DAE69EF53
:1018CC000CF06CEF0CF0FFFF6EEF0CF0FFFF048ED2
:1018DC00FFFF01C001F002C002F003C003F004C01E
:1018EC0004F0FFFF1200FFFFFFFF42C0D9FF43C00F
:1018FC00DAFFDECFF6FFDDCFF7FF0800FFFFF55074
:10190C00250AD8A48CEF0CF08FEF0CF0FFFF0CEF36
:10191C000FF0FFFF42C0D9FF43C0DAFFDE2A000EF2
:10192C00DD22000E0001DD6F000EDC6FDCC05EF00E
:10193C00DDC05FF05C685D68000E4B6E000E4A6E99
:10194C00F8EF0CF0FFFF5E80FFFF42C0D9FF43C0F1
:10195C00DAFFDE2A000EDD22F8EF0CF0FFFF5E82CC
:10196C00AAEF0CF0FFFF5E84AAEF0CF0FFFF5E867F
:10197C00AAEF0CF0FFFF5E88AAEF0CF0FFFF000E41
:10198C004B6E010E4A6EF8EF0CF0FFFF42C0D9FF10
:10199C0043C0DAFFDECFF6FFDDCFF7FF0800FFFF15
:1019AC00F550466E476A4750000AD8B4E0EF0CF089
:1019BC00C4EF0CF0FFFF4650200AD8B4BCEF0CF07B
:1019CC00030AD8B4C0EF0CF0080AD8B4B8EF0CF086
:1019DC00060AD8B4A8EF0CF01D0AD8B4B4EF0CF07A
:1019EC00C4EF0CF0FFFF4A504B10D8B400EF0DF0D1
:1019FC0003EF0DF0FFFFCBEF0CF0FFFF5EA009EF44
:101A0C000DF00CEF0DF0FFFF0EEF0DF0FFFF5E92EF
:101A1C00FFFF42C0D9FF43C0DAFFDECFF6FFDDCFB8
:101A2C00F7FF0800FFFFF5502E0AD8A420EF0DF0A9
:101A3C0023EF0DF0FFFF9CEF0DF0FFFF000E5D6E2E
:101A4C00000E5C6E42C0D9FF43C0DAFFDE2A000EE6
:101A5C00DD2242C0D9FF43C0DAFFDECFF6FFDDCF77
:101A6C00F7FF0800FFFFF5502A0AD8A440EF0DF04D
:101A7C0043EF0DF0FFFF61EF0DF0FFFF42C0D9FF08
:101A8C0043C0DAFFDE2A000EDD2244C0D9FF45C078
:101A9C00DAFFDFCF46F0020EDE26DFCF47F0000E76
:101AAC00DD2246C0D9FF47C0DAFFDECF5CF0DDCFC8
:101ABC005DF09CEF0DF0FFFF42C0D9FF43C0DAFF91
:101ACC00DECF08F0DDCF09F0D4EC16F008C05CF0E6
:101ADC0009C05DF07AEF0DF0FFFF42C0D9FF43C0A3
:101AEC00DAFFDE2A000EDD22FFFFD00E466EFF0E5F
:101AFC00476E42C0D9FF43C0DAFFDECFF6FFDDCF21
:101B0C00F7FF0800FFFFF550486E496A465048261B
:101B1C004750492249500AE10A0E485CD8A099EF77
:101B2C000DF09CEF0DF0FFFF72EF0DF0FFFF42C0C8
:101B3C00D9FF43C0DAFFDECFF6FFDDCFF7FF080099
:101B4C00FFFFF550076E086AC5EC1CF00750506E8D
:101B5C005050D8B4B4EF0DF0B7EF0DF0FFFFF4EF29
:101B6C000DF0FFFF42C0D9FF43C0DAFFDECF46F0D5
:101B7C00DDCF47F0010E4626000E472246C0F6FF89
:101B8C0047C0F7FF0800FFFFF550076E086AC5EC69
:101B9C001CF00750516E5150D8B4D7EF0DF0DAEF5E
:101BAC000DF0FFFFF4EF0DF0FFFF42C0D9FF43C073
:101BBC00DAFFDECF46F0DDCF47F0020E4626000EF0
:101BCC00472246C0F6FF47C0F7FF0800FFFFF5505D
:101BDC00076E086AC5EC1CF00750526EFFFF660ECC
:101BEC005018D8A4FCEF0DF0FFEF0DF0FFFF42EF03
:101BFC000EF0FFFF42C0D9FF43C0DAFFDECFF6FF85
:101C0C00DDCFF7FF0800FFFFF5CF53F042C0D9FF3F
:101C1C0043C0DAFFDE2A000EDD2244C0D9FF45C0E6
:101C2C00DAFFDFCF46F0040EDE26DFCF47F0000EE2
:101C3C00DD2246C0D9FF47C0DAFFDECF4CF0DECF45
:101C4C004DF0DECF4EF0DECF4FF0FFFF40C034F052
:101C5C0041C035F04CC036F04DC037F04EC038F0B6
:101C6C004FC039F053C03AF00EEC03F034C040F0E2
:101C7C0035C041F029EF0FF0FFFF500E016E000E42
:101C8C00026E170E036E060E046E000E066E020E2A
:101C9C00056E58EC19F001500210D8A458EF0EF054
:101CAC005BEF0EF0FFFFD0EF0EF0FFFF42C0D9FF4D
:101CBC0043C0DAFFDECF46F0DDCF47F0010E4626FB
:101CCC00000E472246C0F6FF47C0F7FF0800FFFF93
:101CDC00F5CF53F0BF0E466EFF0E476E42C0D9FFD4
:101CEC0043C0DAFFDECFF6FFDDCFF7FF0800FFFFC2
:101CFC00F550486E496A465048264750492249508B
:101D0C0007E11A0E485CD8B08EEF0EF091EF0EF092
:101D1C00FFFFACEF0EF0FFFF44C0D9FF45C0DAFF68
:101D2C00DFCF46F0040EDE26DFCF47F0000EDD22BB
:101D3C0046C0D9FF47C0DAFFDECF4CF0DECF4DF006
:101D4C00DECF4EF0DECF4FF0C5EF0EF0FFFF44C0FC
:101D5C00D9FF45C0DAFFDFCF46F0040EDE26DFCF19
:101D6C0047F0000EDD2246C0D9FF47C0DAFFDECFB8
:101D7C004CF0DECF4DF0DECF4EF0DECF4FF0FFFF5C
:101D8C00020E42C0D9FF43C0DAFFDE26000EDD2270
:101D9C002BEF0EF0FFFF42C0D9FF43C0DAFFDECFBE
:101DAC00F6FFDDCFF7FF0800FFFFF550250AD8A49A
:101DBC00E2EF0EF0E5EF0EF0FFFFFEEF0EF0FFFF8F
:101DCC0042C0D9FF43C0DAFFDE2A000EDD22000E2E
:101DDC00026E250E016E40C003F041C004F0BEEC53
:101DEC001AF0FFFF000E416E010E406E29EF0FF04E
:101DFC00FFFF42C0D9FF43C0DAFFDE2A000EDD220E
:101E0C00000E416E000E406E29EF0FF0FFFF42C036
:101E1C00D9FF43C0DAFFDECFF6FFDDCFF7FF0800B6
:101E2C00FFFFF550016E026A40C003F041C004F0A0
:101E3C00BEEC1AF042C0D9FF43C0DAFFDE2A000E16
:101E4C00DD22F7EF0EF0FFFF1200FFFFFFFF125035
:101E5C00800B1B6E12501224216E11AE38EF0FF056
:101E6C003BEF0FF0FFFF3DEF0FF0FFFF2180FFFF77
:101E7C002150D8B444EF0FF047EF0FF0FFFF5EEFA7
:101E8C000FF0FFFF2128D8A44EEF0FF051EF0FF009
:101E9C00FFFF5AEF0FF0FFFF000E0F6E000E106EDB
:101EAC00000E116E000E126EFFFF118E67EF0FF019
:101EBC00FFFF000E0F6E000E106E000E116E000E66
:101ECC00126EFFFF1650800B1B1A16501624206E34
:101EDC0015AE73EF0FF076EF0FF0FFFF78EF0FF00A
:101EEC00FFFF2080FFFF2050D8B47FEF0FF082EF70
:101EFC000FF0FFFF99EF0FF0FFFF2028D8A489EF18
:101F0C000FF08CEF0FF0FFFF95EF0FF0FFFF000EBF
:101F1C00136E000E146E000E156E000E166EFFFF83
:101F2C00158EA2EF0FF0FFFF000E136E000E146E55
:101F3C00000E156E000E166EFFFF2050D8B4A9EFE0
:101F4C000FF0ACEF0FF0FFFFB6EF0FF0FFFF2150DB
:101F5C00D8A4B3EF0FF0B6EF0FF0FFFFC1EF0FF007
:101F6C00FFFF000E0F6E000E106E000E116E000EB5
:101F7C00126E7BEF11F0FFFF15500F02F3CF26F01E
:101F8C00F4CF27F026501C6E1D6A1E6A1F6A27505C
:101F9C00226E236A246A256A14501002F3CF26F0AD
:101FAC00F4CF27F026501C26000E1D221E221F22C5
:101FBC0027502226000E2322242225221350110200
:101FCC00F3CF26F0F4CF27F026501C26000E1D224E
:101FDC001E221F2227502226000E232224222522D5
:101FEC001EC01FF01DC01EF01CC01DF01C6A13503B
:101FFC001002F3CF26F0F4CF27F026501C262750E2
:10200C001D22000E1E22000E1F2214500F02F3CFB1
:10201C0026F0F4CF27F026501C2627501D22000E48
:10202C001E22000E1F221EC01FF01DC01EF01CC061
:10203C001DF01C6A13500F02F3CF26F0F4CF27F0DB
:10204C0026501C2627501D22000E1E22000E1F2279
:10205C0015501002F3CF26F0F4CF27F0265022268D
:10206C0027502322000E2422000E25221450110288
:10207C00F3CF26F0F4CF27F0265022262750232228
:10208C00000E2422000E252215501102F3CF26F04B
:10209C00F4CF27F02650176E2750186E196A1A6A5B
:1020AC0019C01AF018C019F017C018F0176A175099
:1020BC00222618502322195024221A5025221CC0E3
:1020CC0017F01DC018F01EC019F01FC01AF0190E21
:1020DC0076EF10F0FFFFD8901A32193218321732FF
:1020EC00FFFFE82E70EF10F0175022261850232215
:1020FC00195024221A5025221EC01FF01DC01EF09C
:10210C001CC01DF01C6A205021C017F0186A17263D
:10211C00000E1822820E1724266EFF0E1820276E32
:10212C00B1EF10F0FFFFD890223623362436253637
:10213C001FAEA3EF10F0A6EF10F0FFFFA8EF10F00A
:10214C00FFFF2280FFFFD8901C361D361E361F362F
:10215C002606D8A02706FFFF24AEB7EF10F0BAEF83
:10216C0010F0FFFF98EF10F0FFFF000E206E1FAE77
:10217C00C2EF10F0C5EF10F0FFFFF0EF10F0FFFF13
:10218C00FF0E1C14176EFF0E1D14186EFF0E1E147E
:10219C00196E7F0E1F141A6E1750181019101A1082
:1021AC00D8B4DBEF10F0DEEF10F0FFFFE4EF10F02F
:1021BC00FFFFFFFF010E206EF0EF10F0FFFF22A0DB
:1021CC00EAEF10F0EDEF10F0FFFFF0EF10F0FFFF73
:1021DC00DFEF10F0FFFF2050D8B4F7EF10F0FAEF5C
:1021EC0010F0FFFF21EF11F0FFFF010E2226000E71
:1021FC0023222422252225A006EF11F009EF11F04D
:10220C00FFFF21EF11F0FFFF22C017F023C018F0E1
:10221C0024C019F025C01AF01A341A3219321832A7
:10222C00173217C022F018C023F019C024F01AC0BE
:10223C0025F0264A272AFFFF27BE2DEF11F0275045
:10224C0009E12628D8A02DEF11F030EF11F0FFFF97
:10225C003BEF11F0FFFF000E226E000E236E800E7E
:10226C00246E7F0E256E70EF11F0FFFF27BE4AEF34
:10227C0011F0275006E12604D8B047EF11F04AEFD1
:10228C0011F0FFFF57EF11F0FFFF000E226E000E52
:10229C00236E000E246E000E256E000E1B6E70EF6A
:1022AC0011F0FFFF26C021F0FF0E2216FF0E2316A1
:1022BC007F0E2416000E251621A067EF11F06AEF91
:1022CC0011F0FFFF6CEF11F0FFFF248EFFFFD89091
:1022DC002130256EFFFF1B50251222C00FF023C0AA
:1022EC0010F024C011F025C012F0FFFF1200FFFF08
:1022FC00FFFF0450800B116E04500424186E03AEC3
:10230C008AEF11F08DEF11F0FFFF8FEF11F0FFFF4F
:10231C001880FFFF1850D8B496EF11F099EF11F018
:10232C00FFFFB2EF11F0FFFF1828D8A4A0EF11F0B7
:10233C00A3EF11F0FFFFACEF11F0FFFF000E016EE9
:10234C00000E026E000E036E000E046EFFFF038E75
:10235C00000E046EBBEF11F0FFFF000E016E000EBD
:10236C00026E000E036E000E046EFFFF0850800B11
:10237C00111A08500824196E07AEC7EF11F0CAEFF6
:10238C0011F0FFFFCCEF11F0FFFF1980FFFF195088
:10239C00D8B4D3EF11F0D6EF11F0FFFFEFEF11F03F
:1023AC00FFFF1928D8A4DDEF11F0E0EF11F0FFFFCB
:1023BC00E9EF11F0FFFF000E056E000E066E000E29
:1023CC00076E000E086EFFFF078E000E086EF8EF0A
:1023DC0011F0FFFF000E056E000E066E000E076E6C
:1023EC00000E086EFFFF0550061007100810D8A449
:1023FC0002EF12F005EF12F0FFFF1FEF12F0FFFFDC
:10240C00000E016E000E026E000E036E000E046EC6
:10241C00800E03127F0E0412FFFF1150041201C034
:10242C0001F002C002F003C003F004C004F094EF0A
:10243C0013F0FFFF1850D8A426EF12F029EF12F07A
:10244C00FFFF34EF12F0FFFF000E016E000E026E64
:10245C00000E036E000E046E94EF13F0FFFF195084
:10246C0018C009F00A6A095E000E0A5A7F0E092488
:10247C00126E000E0A20136E01C00DF002C00EF099
:10248C0003C00FF004C010F0000E016E000E026EBF
:10249C00000E036E000E046E000E146E000E156E10
:1024AC00000E166E000E176E000E196EA0EF12F0D5
:1024BC00FFFF1950D8B465EF12F068EF12F0FFFF70
:1024CC0083EF12F0FFFFD8900D360E360F36103614
:1024DC00D890013602360336043617AE78EF12F078
:1024EC007BEF12F0FFFF7DEF12F0FFFF0180FFFF8B
:1024FC00D8901436153616361736FFFF05500D5C7E
:10250C0006500E5807500F5808501058D8A091EF8D
:10251C0012F094EF12F0FFFF9EEF12F0FFFF178CFA
:10252C0005500D5E06500E5A07500F5A0850105A9F
:10253C00FFFF192AFFFF190E1964A7EF12F0AAEF7B
:10254C0012F0FFFF5EEF12F0FFFF0D500E100F1098
:10255C001010D8B4B4EF12F0B7EF12F0FFFFD4EFB5
:10256C0012F0FFFF1480D4EF12F0FFFFD890013669
:10257C0002360336043617AEC6EF12F0C9EF12F06E
:10258C00FFFFCBEF12F0FFFF0180FFFFD890143656
:10259C001536163617361206D8A01306FFFF03AEF3
:1025AC00DAEF12F0DDEF12F0FFFFBBEF12F0FFFFDE
:1025BC00000E196E17AEE5EF12F0E8EF12F0FFFF08
:1025CC0013EF13F0FFFFFF0E1414096EFF0E15141A
:1025DC000A6EFF0E16140B6E7F0E17140C6E09503C
:1025EC000A100B100C10D8B4FEEF12F001EF13F020
:1025FC00FFFF07EF13F0FFFFFFFF010E196E13EF44
:10260C0013F0FFFF01A00DEF13F010EF13F0FFFF1D
:10261C0013EF13F0FFFF02EF13F0FFFF1950D8B4C4
:10262C001AEF13F01DEF13F0FFFF44EF13F0FFFF51
:10263C00010E0126000E02220322042204A029EF1F
:10264C0013F02CEF13F0FFFF44EF13F0FFFF01C06A
:10265C0009F002C00AF003C00BF004C00CF00C34FB
:10266C000C320B320A32093209C001F00AC002F0F6
:10267C000BC003F00CC004F0124A132AFFFF13BE68
:10268C0050EF13F0135009E11228D8A050EF13F0BB
:10269C0053EF13F0FFFF5FEF13F0FFFF000E136E0D
:1026AC001268000E016E000E026E000E036E000E1C
:1026BC00046EFFFF13BE6EEF13F0135006E112040D
:1026CC00D8B06BEF13F06EEF13F0FFFF7DEF13F04C
:1026DC00FFFF000E136E000E126E000E016E000E48
:1026EC00026E000E036E000E046E000E116EFFFFE4
:1026FC0012C018F018A085EF13F088EF13F0FFFF4D
:10270C008CEF13F0FFFF038E8EEF13F0FFFF039E91
:10271C00FFFFD8901830046E12EF12F0FFFF12007A
:10272C00FFFFFFFFD2C02AF0D3C02BF0D4C02CF097
:10273C00D5C02DF01AC02AF01BC02BF01CC02CF0F9
:10274C001DC02DF0810E1E6EFF0E1F6E2AC020F0D4
:10275C002BC021F02CC022F02DC023F0180EBDEFA1
:10276C0013F0FFFFD8902332223221322032FFFFA8
:10277C00E82EB7EF13F020501E24286E000E1F20F9
:10278C00296E29BED3EF13F029500AE1170E285CED
:10279C00D8A0D3EF13F0D6EF13F0FFFFE2EF13F056
:1027AC00FFFFFFFF1AC01AF01BC01BF01CC01CF06F
:1027BC001DC01DF0BCEF14F0FFFF29BEE8EF13F0B5
:1027CC00EBEF13F0FFFF67EF14F0FFFF28C01EF0D4
:1027DC00FF0E1F6EFF0E206E7F0E216E000E226EFE
:1027EC00FFFF1E66FCEF13F005EF14F0FFFF223421
:1027FC002232213220321F321E2EF6EF13F0FFFF51
:10280C001FC024F020C025F021C026F022C027F0E4
:10281C0024502A141E6E25502B141F6E26502C1477
:10282C00206E27502D14216E1E501F1020102110C9
:10283C00D8A423EF14F026EF14F0FFFF29EF14F0C7
:10284C00FFFFD7EF13F0FFFF2AC01EF02BC01FF0C5
:10285C002CC020F02DC021F0200E3BEF14F0FFFF18
:10286C00D890213220321F321E32FFFFE82E35EF76
:10287C0014F01E501F1020102110D8B448EF14F083
:10288C004BEF14F0FFFF54EF14F0FFFF24502A26F7
:10289C0025502B2226502C2227502D22FFFF241CA2
:1028AC001E6E251C1F6E261C206E271C216E1E50B2
:1028BC002A161F502B1620502C1621502D16B3EF14
:1028CC0014F0FFFF2AC01EF02BC01FF02CC020F00C
:1028DC002DC021F0200E79EF14F0FFFFD89021329B
:1028EC0020321F321E32FFFFE82E73EF14F01E5001
:1028FC001F1020102110D8A486EF14F089EF14F0CB
:10290C00FFFF94EF14F0FFFF000E2A6E000E2B6EEB
:10291C00000E2C6E000E2D6EB3EF14F0FFFFD8904E
:10292C002A341E6E2B341F6E2C34206E2D34216EE7
:10293C001E501F1020102110D8B4A7EF14F0AAEFCE
:10294C0014F0FFFFB3EF14F0FFFF000E2A6E000E21
:10295C002B6E800E2C6EBF0E2D6EFFFF2AC01AF050
:10296C002BC01BF02CC01CF02DC01DF0FFFF120063
:10297C00FFFFFFFF928094909492000E956E000ED4
:10298C000001CA6F000ECB6F000ECC6F000ECD6F26
:10299C0020EEDEF010EEAFF0080EDBCFE3FFE80622
:1029AC00FCE2010EC26E800EC16E000E026E380E7D
:1029BC00016E000E046E000E036EE4EC1DF0000EB2
:1029CC00026E0C0E016E000E046E000E036EE4EC33
:1029DC001DF0000E026E060E016E000E046E000E4F
:1029EC00036EE4EC1DF0000E026E010E016E000E83
:1029FC00046E000E036EE4EC1DF0FFFFC284FFFFBB
:102A0C00C2B40BEF15F00EEF15F0FFFF05EF15F04C
:102A1C00FFFFC4500001C66FC76BC86BC96BC6C043
:102A2C00A8F0C7C0A9F0C8C0AAF0A76BC3CFABF081
:102A3C00AC6BAD6BAE6BA751AB11C26FA851AC11A7
:102A4C00C36FA951AD11C46FAA51AE11C56FC2C0ED
:102A5C0001F0C3C002F0C4C003F0C5C004F0010E05
:102A6C00D8EC15F001C00FF002C010F003C011F04B
:102A7C0004C012F00A0E136E280E146EA00E156E02
:102A8C003B0E166E2CEC0FF00FC0CAF010C0CBF042
:102A9C0011C0CCF012C0CDF0B80E0001926F000E38
:102AAC00936F010E946F060E956FCAC096F0CBC053
:102ABC0097F0CCC098F0CDC099F09AEC1CF0000EB9
:102ACC00026E800E016E000E046E000E036EE4ECBE
:102ADC001DF0000E0001CF6F000ECE6F8BEF15F0C6
:102AEC00FFFFAF0ECE25D96E000ECF21DA6EDF5070
:102AFC00A76FA751016E026A000E046E010E036EE1
:102B0C00E4EC1DF00001CE4BCF2BFFFFAF0ECE251A
:102B1C00D96E000ECF21DA6EDF50D8A498EF15F0E5
:102B2C009BEF15F0FFFF76EF15F0FFFF000ED16F56
:102B3C00000ED06FFFFFB80ED025D96E000ED1213C
:102B4C00DA6EDF50A76FA751016E026A000E046E99
:102B5C00010E036EE4EC1DF00001D04BD12BD1BF64
:102B6C00C1EF15F0D1510AE1040ED05DD8A0C1EF30
:102B7C0015F0C4EF15F0FFFFA0EF15F0FFFF020EEC
:102B8C000001A86FE80EA76F510EFFFFE82EFDD7CE
:102B9C00A72FFBD7A82FF9D700D000F003EF15F023
:102BAC0001EF00F0FFFF096E0950D8B4E0EF15F00B
:102BBC00E3EF15F0FFFF08EF16F0FFFF04BEECEF9C
:102BCC0015F0E9EF15F0FFFF08EF16F0FFFF01C05D
:102BDC0005F002C006F003C007F004C008F0051EA3
:102BEC00061E071E081E052A000E062207220822B2
:102BFC0005C00BF006C00CF007C00DF008C00EF0BD
:102C0C0011EF16F0FFFF01C00BF002C00CF003C077
:102C1C000DF004C00EF0FFFF015002100310041061
:102C2C00D8A41BEF16F01EEF16F0FFFF29EF16F0DD
:102C3C00FFFF000E016E000E026E000E036E000E02
:102C4C00046ED1EF16F0FFFF960E0A6E35EF16F0FC
:102C5C00FFFF0A2AD8900E320D320C320B32FFFFD6
:102C6C00000E0B14056E000E0C14066E000E0D14E7
:102C7C00076EFE0E0E14086E055006100710081095
:102C8C00D8A44BEF16F04EEF16F0FFFF2EEF16F018
:102C9C00FFFF5EEF16F0FFFF0A2A010E0B26000E57
:102CAC000C220D220E22D8900E320D320C320B3229
:102CBC00FFFF000E0B14056E000E0C14066E000EBA
:102CCC000D14076EFF0E0E14086E0550061007103B
:102CDC000810D8A474EF16F077EF16F0FFFF51EF41
:102CEC0016F0FFFF81EF16F0FFFF0A06D8900B36A7
:102CFC000C360D360E36FFFF0DBE87EF16F08AEF41
:102D0C0016F0FFFF94EF16F0FFFF020E0A6091EF32
:102D1C0016F094EF16F0FFFF7AEF16F0FFFF0AB0F3
:102D2C009AEF16F09DEF16F0FFFF9FEF16F0FFFFE6
:102D3C000D9EFFFFD8900A320AC005F0066A076A9A
:102D4C00086A05C008F0076A066A056A05500B1286
:102D5C0006500C1207500D1208500E120950D8B420
:102D6C00BAEF16F0BDEF16F0FFFFC8EF16F0FFFF3D
:102D7C0004BEC6EF16F0C3EF16F0FFFFC8EF16F057
:102D8C00FFFF0E8EFFFF0BC001F00CC002F00DC058
:102D9C0003F00EC004F0FFFF1200FFFFFFFF000E58
:102DAC00116E000E106E000E0F6E000E0E6EE2EF26
:102DBC0016F0FFFF084A092AFFFF08C0F6FF09C0FA
:102DCC00F7FF0800FFFFF550200AD8B4F0EF16F01B
:102DDC00F3EF16F0FFFFDFEF16F0FFFFF70E0A6EB2
:102DEC00FF0E0B6E08C0F6FF09C0F7FF0800FFFFCF
:102DFC00F5500C6E0D6A0A500C260B500D220D501E
:102E0C000AE1050E0C5CD8A00EEF17F011EF17F0CD
:102E1C00FFFFDFEF16F0FFFF1EEF17F0FFFF000EB6
:102E2C000F6E010E0E6EFFFF084A092A58EF17F0BD
:102E3C00FFFF08C0F6FF09C0F7FF0800FFFFF550C1
:102E4C000A6E0B6A0B50000AD8B42FEF17F058EF2C
:102E5C0017F0FFFF0A502B0AD8B419EF17F0060A27
:102E6C00D8B414EF17F058EF17F0FFFF10C001F0B3
:102E7C0011C002F0000E046E0A0E036E00EC1EF080
:102E8C0008C0F6FF09C0F7FF0800FFFFF550015E10
:102E9C00000E025A300E0124106E000E0220116E2C
:102EAC0019EF17F0FFFFD00E0A6EFF0E0B6E08C065
:102EBC00F6FF09C0F7FF0800FFFFF5500C6E0D6A16
:102ECC000A500C260B500D220D500AE10A0E0C5C18
:102EDC00D8A073EF17F076EF17F0FFFF3BEF17F06A
:102EEC00FFFF0E500F10D8A47EEF17F081EF17F0F4
:102EFC00FFFF90EF17F0FFFF10C00AF011C00BF0AE
:102F0C000A1E0B1E0A4A0B2A0AC008F00BC009F055
:102F1C0095EF17F0FFFF10C008F011C009F0FFFF8C
:102F2C001200FFFFFFFF033404340A6E0A50D8A4CA
:102F3C00A2EF17F0A5EF17F0FFFFB1EF17F0FFFFAF
:102F4C00FFFF000E016E000E026E000E036E000EEF
:102F5C00046E30EF18F0FFFF01C005F002C006F060
:102F6C0003C007F004C008F0200EC3EF17F0FFFFFA
:102F7C00D8900832073206320532FFFFE82EBDEF3B
:102F8C0017F00550096E038EFF0E0116FF0E021688
:102F9C00FF0E0316000E0416960E0A5E0ABEDCEF38
:102FAC0017F0D9EF17F0FFFFF6EF17F0FFFF0A50FD
:102FBC00800A970FD8B0E5EF17F0E8EF17F0FFFF96
:102FCC00EBEF17F0FFFFA6EF17F0FFFFD8900432DE
:102FDC000332023201320A3EEBEF17F014EF18F015
:102FEC00FFFF1F0E0A64FDEF17F000EF18F0FFFF54
:102FFC000AEF18F0FFFFA6EF17F0FFFFD89001368D
:10300C000236033604360A06FFFF0A50D8A411EF25
:10301C0018F014EF18F0FFFF03EF18F0FFFF095042
:10302C00D8B41BEF18F01EEF18F0FFFF27EF18F0C5
:10303C00FFFF041E031E021E016C000E022203225F
:10304C000422FFFF01C001F002C002F003C003F034
:10305C0004C004F0FFFF1200FFFFFFFF000E281456
:10306C00306E000E2914316E800E2A14326E7F0ED3
:10307C002B14336E3050311032103310D8A449EF6A
:10308C0018F04CEF18F0FFFF55EF18F0FFFF000E93
:10309C00286E000E296E000E2A6E000E2B6EFFFF9E
:1030AC00000E2C14306E000E2D14316E800E2E146A
:1030BC00326E7F0E2F14336E3050311032103310AD
:1030CC00D8A46BEF18F06EEF18F0FFFF77EF18F045
:1030DC00FFFF000E2C6E000E2D6E000E2E6E000EDD
:1030EC002F6EFFFF2BAE7DEF18F080EF18F0FFFF77
:1030FC008AEF18F0FFFF286C291ED8B0292A2A1E47
:10310C00D8B02A2A800E2B56FFFF2FAE90EF18F066
:10311C0093EF18F0FFFF9DEF18F0FFFF2C6C2D1EA6
:10312C00D8B02D2A2E1ED8B02E2A800E2F56FFFF77
:10313C00000E281A000E291A000E2A1A800E2B1ABD
:10314C00000E2C1A000E2D1A000E2E1A800E2F1A9D
:10315C002C50285C2D5029582E502A582F502B5863
:10316C00D8B0BBEF18F0BEEF18F0FFFFC2EF18F0AD
:10317C00FFFFD890C4EF18F0FFFFD880FFFF1200BC
:10318C00FFFFFFFFD6C00BF0D7C00CF0D8C00DF07E
:10319C00D9C00EF001C00BF002C00CF003C00DF052
:1031AC0004C00EF00BC005F00CC006F00DC007F00B
:1031BC000EC008F0180EE9EF18F0FFFFD890083297
:1031CC00073206320532FFFFE82EE3EF18F0055008
:1031DC00096E0A6A09500A10D8A4F7EF18F0FAEF32
:1031EC0018F0FFFF1EEF19F0FFFFD8900B34056E9F
:1031FC000C34066E0D34076E0E34086E0550061036
:10320C0007100810D8A40DEF19F010EF19F0FFFFFC
:10321C0017EF19F0FFFF000E026E020E016E55EF54
:10322C0019F0FFFF000E026E030E016E55EF19F040
:10323C00FFFF09280A10D8A426EF19F029EF19F07E
:10324C00FFFF50EF19F0FFFF0BC005F00CC006F0AC
:10325C000DC007F00EC008F0090EFFFFD890053620
:10326C00063607360836E82E33EF19F005500610EF
:10327C0007100810D8B445EF19F049EF19F0FFFF0B
:10328C00010E4BEF19F0FFFF000EFFFF016E026AFB
:10329C0055EF19F0FFFF000E026E040E016EFFFFDA
:1032AC001200FFFFFFFF01C008F002C009F003C0CD
:1032BC000AF004C00BF00506D8A00606052806E1A6
:1032CC000628D8A46CEF19F06FEF19F0FFFF7EEF12
:1032DC0019F0FFFF000E026E000E016ED2EF19F016
:1032EC00FFFF084A092A0A4A0B2A0506D8A0060637
:1032FC00FFFF08C0D9FF09C0DAFFDF50D8B489EF4F
:10330C0019F08CEF19F0FFFFBFEF19F0FFFF0AC0A7
:10331C00F6FF0BC0F7FF0800FFFFF5500009D8B40B
:10332C009AEF19F09DEF19F0FFFFBFEF19F0FFFFB7
:10333C0005500610D8B4A5EF19F0A8EF19F0FFFF4F
:10334C00BFEF19F0FFFF08C0D9FF09C0DAFFDF504B
:10335C00076E0AC0F6FF0BC0F7FF0800FFFFF55021
:10336C000718D8B4BCEF19F0BFEF19F0FFFF76EFD8
:10337C0019F0FFFF08C0D9FF09C0DAFFDF50076E54
:10338C000AC0F6FF0BC0F7FF0800FFFFF550075C03
:10339C00016E026AD8A00206FFFF1200FFFFFFFFBA
:1033AC00000E066E04BEE0EF19F0DDEF19F0FFFF22
:1033BC00E7EF19F0FFFF036C041ED8B0042A010ECE
:1033CC00066EFFFF02BEF0EF19F0EDEF19F0FFFFF4
:1033DC00F7EF19F0FFFF016C021ED8B0022A010EA4
:1033EC00061AFFFF000E086E000E076E0350041045
:1033FC00D8B403EF1AF006EF1AF0FFFF37EF1AF00C
:10340C00FFFF010E056E10EF1AF0FFFFD890033688
:10341C000436052AFFFF04AE16EF1AF019EF1AF066
:10342C00FFFF0BEF1AF0FFFFFFFFD89007360836AF
:10343C000350015C04500258D8A027EF1AF02AEF71
:10344C001AF0FFFF30EF1AF0FFFF0350015E04503B
:10345C00025A0780FFFFD89004320332052E1AEF70
:10346C001AF0FFFF0650D8B43EEF1AF041EF1AF0F5
:10347C00FFFF46EF1AF0FFFF076C081ED8B0082AB2
:10348C00FFFF07C001F008C002F01200FFFFFFFFB2
:10349C005EA053EF1AF056EF1AF0FFFF61EF1AF02F
:1034AC00FFFF13C00AF014C00BF011C00CF012C0D7
:1034BC000DF0EEEC1CF0FFFF16BE67EF1AF06AEF92
:1034CC001AF0FFFF71EF1AF0FFFF15C01AF016C0CB
:1034DC001BF076EF1AF0FFFF000E1B6E000E1A6E3B
:1034EC00FFFF000E196E000E186E8AEF1AF0FFFF28
:1034FC00000E026E200E016E11C003F012C004F01B
:10350C00BEEC1AF0184A192AFFFF1A50185C195011
:10351C00800A176E1B50800A1758D8A098EF1AF023
:10352C009BEF1AF0FFFF7DEF1AF0FFFF5EB0A1EFEB
:10353C001AF0A4EF1AF0FFFFAFEF1AF0FFFF13C061
:10354C000AF014C00BF011C00CF012C00DF0EEEC30
:10355C001CF0FFFF13C001F014C002F081EC1DF051
:10356C001A500124116E1B500220126E1200FFFF24
:10357C00FFFF03500410D8B4C6EF1AF0C9EF1AF0CD
:10358C00FFFFD4EF1AF0FFFF03500410D8A4D1EFC3
:10359C001AF0D4EF1AF0FFFFDAEF1AF0FFFF015028
:1035AC001AEC1EF02CEF1BF0FFFF20EE09F003507D
:1035BC00D9260450DA22DE50DE10D8B4E8EF1AF027
:1035CC00EBEF1AF0FFFF08EF1BF0FFFF20EE09F006
:1035DC000350D9260450DA2210EE03F00350E126F2
:1035EC000450E222DE50E65CE650800A096EDE50A2
:1035FC00800A0958D8B005EF1BF008EF1BF0FFFF4D
:10360C002CEF1BF0FFFF20EE03F00350D9260450E3
:10361C00DA22DECF05F0DDCF06F003C0D9FF04C0FF
:10362C00DAFFDECF07F0DDCF08F005500724D96EA6
:10363C0006500820DA6E01C0DFFF20EE03F00350C5
:10364C00D9260450DA22DE2A000EDD22FFFF1200FA
:10365C00FFFFFFFF000E066E02BE3AEF1BF037EFC6
:10366C001BF0FFFF41EF1BF0FFFF016C021ED8B0F7
:10367C00022A010E066EFFFF04BE4AEF1BF047EF55
:10368C001BF0FFFF4FEF1BF0FFFF036C041ED8B0C5
:10369C00042AFFFF03500410D8B457EF1BF05AEF65
:1036AC001BF0FFFF87EF1BF0FFFF010E056E64EFB1
:1036BC001BF0FFFFD89003360436052AFFFF04AE3B
:1036CC006AEF1BF06DEF1BF0FFFF5FEF1BF0FFFFCE
:1036DC00FFFF0350015C04500258D8A078EF1BF098
:1036EC007BEF1BF0FFFF80EF1BF0FFFF0350015E31
:1036FC000450025AFFFFD89004320332052E6EEFAD
:10370C001BF0FFFF0650D8B48EEF1BF091EF1BF0AF
:10371C00FFFF96EF1BF0FFFF016C021ED8B0022AD0
:10372C00FFFF01C001F002C002F01200FFFFFFFF1B
:10373C00000E0114096E000E02140A6E800E0314A2
:10374C000B6E7F0E04140C6E09500A100B100C102B
:10375C00D8A4B3EF1BF0B6EF1BF0FFFFBFEF1BF0CD
:10376C00FFFF000E016E000E026E000E036E000EC7
:10377C00046EFFFF000E0514096E000E06140A6E8F
:10378C00800E07140B6E7F0E08140C6E09500A1075
:10379C000B100C10D8A4D5EF1BF0D8EF1BF0FFFFCB
:1037AC00E1EF1BF0FFFF000E056E000E066E000E23
:1037BC00076E000E086EFFFF0550011810E1065051
:1037CC0002180DE1075003180AE108500418D8B488
:1037DC00F2EF1BF0F5EF1BF0FFFFF9EF1BF0FFFF13
:1037EC00D890FBEF1BF0FFFFD880FFFF1200FFFF0C
:1037FC00FFFF56C05AF057C05BF0000E0001DB6FA4
:10380C00000EDA6F1EEF1CF0FFFF54C040F055C0E5
:10381C0041F05A0E426E000E436E58C044F059C02F
:10382C0045F07AEC0CF040500001DA274150DB23D4
:10383C00FFFF5AC0F6FF5BC0F7FF0800FFFFF55013
:10384C000009D8A42CEF1CF02FEF1CF0FFFF0AEF9F
:10385C001CF0FFFFDAC054F0DBC055F01200FFFF84
:10386C00FFFF03C007F004C008F001C009F002C05C
:10387C000AF0FFFF0750056E0850066E074A082A2B
:10388C0005C0F6FF06C0F7FFF86A09C0D9FF0AC0E9
:10389C00DAFF094A0A2A050EF76404D00800FFFF74
:1038AC00F55005D0F6CFE1FFF7CFE2FFE750DF6E22
:1038BC00DF50D8A464EF1CF067EF1CF0FFFF3FEF64
:1038CC001CF0FFFF1200FFFFFFFF010E076E200E22
:1038DC0001180210D8B475EF1CF078EF1CF0FFFF44
:1038EC0094EF1CF0FFFFF70E036EFF0E046E01C089
:1038FC0005F002C006F003500526045006220650BF
:10390C000AE1050E055CD8A08EEF1CF091EF1CF0BF
:10391C00FFFF94EF1CF0FFFF000E076EFFFF07C0C8
:10392C0001F0026A1200FFFFFFFF960E00019A6F72
:10393C00000E9B6F92C09CF093C09DF0000EA06F88
:10394C00000E9F6F000EA66F000EA56F9C0E546E9E
:10395C00000E556E94C056F095C057F09A0E586EE6
:10396C00000E596EFEEC1BF000019F519225D96E92
:10397C00A0519321DA6E000EDF6E1200FFFFFFFFE5
:10398C00BF0E096EFF0E0A6E07C00BF008C00CF0DC
:10399C0009500B260A500C220C5007E11A0E0B5C36
:1039AC00D8B0DBEF1CF0DEEF1CF0FFFFE6EF1CF0F5
:1039BC00FFFF200E0710076E0850086EEBEF1CF08F
:1039CC00FFFF07C007F008C008F0FFFF1200FFFF61
:1039DC00FFFF000E106E000E0F6E01EF1DF0FFFFCB
:1039EC000EC001F0026A0CC003F00DC004F0BEEC76
:1039FC001AF00F4A102AFFFF0F500A24D96E1050EC
:103A0C000B20DA6EDF500E6E0E50D8A410EF1DF0A6
:103A1C0013EF1DF0FFFFF5EF1CF0FFFF1200FFFF8F
:103A2C002A0EF66E3C0EF76E000EF86E00EEDEF00F
:103A3C0010EE09F00900F5CFEEFFE550E150FAE188
:103A4C0001EE00F0500EEE6AE806FDE100EED2F059
:103A5C000C0EEE6AE806FDE15F6A5E6A5D6A5C6AFE
:103A6C00000EF86E0001BFEF14F0FFFF000E2C1AD1
:103A7C00000E2D1A000E2E1A800E2F1A28C001F0DF
:103A8C0029C002F02AC003F02BC004F02CC005F0B2
:103A9C002DC006F02EC007F02FC008F0A6EC09F0E0
:103AAC0001C028F002C029F003C02AF004C02BF09A
:103ABC001200FFFFFFFFBF0E036EFF0E046E01C06E
:103ACC0005F002C006F003500526045006220650ED
:103ADC000BE11A0E055CD8A076EF1DF07AEF1DF005
:103AEC00FFFF010E7CEF1DF0FFFF000EFFFF016ECC
:103AFC00026A1200FFFFFFFF01C003F002C004F0D6
:103B0C008BEF1DF0FFFF014A022AFFFF01C0D9FF16
:103B1C0002C0DAFFDF50D8A496EF1DF099EF1DF02C
:103B2C00FFFF88EF1DF0FFFF0350015C016E045096
:103B3C000258026E1200FFFFFFFF0150021003102B
:103B4C000410D8B4ACEF1DF0AFEF1DF0FFFFB8EFD1
:103B5C001DF0FFFF000E011A000E021A000E031AD0
:103B6C00800E041AFFFF01C001F002C002F003C076
:103B7C0003F004C004F01200FFFFFFFFD00E036E31
:103B8C00FF0E046E01C005F002C006F003500526BE
:103B9C000450062206500BE10A0E055CD8A0D9EFA2
:103BAC001DF0DDEF1DF0FFFF010EDFEF1DF0FFFF3D
:103BBC00000EFFFF016E026A1200FFFFFFFF01C043
:103BCC0083FF03B002D0829001D082808282310EBA
:103BDC00056EBB0EFFFFE82EFDD7052EFBD782929C
:103BEC00310E056EBB0EFFFFE82EFDD7052EFBD761
:103BFC001200FFFFFFFF01500302F3CF05F0F4CFDB
:103C0C0006F001500402F350062602500302F35052
:103C1C00062605C001F006C002F01200FFFF566F29
:073C2C006C746167653A004A
:083C3400FFFF1200FFFFFFFF7C
:020000040020DA
:08000000FFFFFFFFFFFFFFFF00
:020000040030CA
:04000000FF220D0EC0
:0800060080FF0FC00FE00F4066
:00000001FF
