:0600000000F087EF1FF085
:103EF800FFFF3F0006005B004F0066006D007D007D
:103F080007007F006F00FA0EF66E3E0EF76E000E89
:103F1800F86E00EE1BF010EE14F00900F5CFEEFF7E
:103F2800E550E150FAE10001C7EF1FF0FFFFB8EFDD
:103F38001FF0FFFF000E046E000E036EFFFF034A22
:103F4800042A04BEB1EF1FF0E80E035C030E045808
:103F5800D8A0B1EF1FF0B4EF1FF0FFFFA2EF1FF0E2
:103F6800FFFF0106D8A00206FFFF01500210D8A4E7
:103F7800C0EF1FF0C3EF1FF0FFFF9DEF1FF0FFFF23
:103F88001200FFFFFFFFFFFF000E946E20EE1BF0F4
:103F980010EE05F0130EDBCFE3FFE806FCE2FFFFAF
:103FA800000E1A6E000E196EFFFFD8901934D96EE4
:103FB8001A34DA6E050ED926000EDA22DF50826E28
:103FC800000E026E640E016E9AEC1FF0194A1A2A4E
:103FD8001ABEF8EF1FF01A500AE10A0E195CD8A0B1
:103FE800F8EF1FF0FBEF1FF0FFFFD8EF1FF0FFFF08
:083FF800D3EF1FF001EF00F010
:020000040020DA
:08000000FFFFFFFFFFFFFFFF00
:020000040030CA
:04000000FF220D0EC0
:0800060080FF0FC00FE00F4066
:00000001FF
