:0600000000F016EF00F015
:10000800FFFF0482F2A40BEF00F00EEF00F0FFFFF9
:1000180011EF00F0FFFF032AF294FFFF0492110092
:10002800FFFFFFFF4DEF00F0FFFFE00EF26E800EC6
:10003800D56E000ED76E3D0ED66E9592FFFF03501B
:10004800D8A429EF00F02CEF00F0FFFF2EEF00F00E
:10005800FFFF8392FFFF640E0318D8A436EF00F069
:1000680039EF00F0FFFF3BEF00F0FFFF8382FFFF57
:10007800C80E0318D8A443EF00F046EF00F0FFFFC6
:1000880022EF00F0FFFF000E036E22EF00F016EFE4
:1000980000F0036A026A016A04900492000118EFF2
:0400A80000F0FFFF66
:020000040020DA
:08000000FFFFFFFFFFFFFFFF00
:020000040030CA
:04000000FF220D0EC0
:0800060080FF0FC00FE00F4066
:00000001FF
