:0600000000F030EF00F0FB
:10000800FFFF03829EA60BEF00F00EEF00F0FFFF4C
:100018002BEF00F0FFFFC7B414EF00F017EF00F06C
:10002800FFFF28EF00F0FFFFC950C688FFFFC7A0F9
:1000380020EF00F023EF00F0FFFF1AEF00F0FFFFC2
:10004800C9CF01F001C083FFFFFFC6889E96FFFF5E
:1000580003921100FFFFFFFF51EF00F0FFFF026E58
:1000680002C0C8FF800EC76E360EC66E010EC56E82
:1000780094869488F28EF28C9E969D861200FFFFDD
:10008800FFFF000E956E000E836E400E32EC00F0FE
:10009800FFFF4CEF00F030EF00F0016A039003928D
:0800A800000144EF00F0FFFF2E
:020000040020DA
:08000000FFFFFFFFFFFFFFFF00
:020000040030CA
:04000000FF220D0EC0
:0800060080FF0FC00FE00F4066
:00000001FF
